{
  "_format": "hh3-artifact-1",
  "contractName": "EFIR",
  "sourceName": "contracts/EFIR.sol",
  "abi": [
    {
      "inputs": [],
      "stateMutability": "nonpayable",
      "type": "constructor"
    },
    {
      "anonymous": false,
      "inputs": [
        {
          "indexed": true,
          "internalType": "uint256",
          "name": "sosId",
          "type": "uint256"
        },
        {
          "indexed": true,
          "internalType": "address",
          "name": "policeAuthority",
          "type": "address"
        },
        {
          "indexed": false,
          "internalType": "bytes32",
          "name": "efirHash",
          "type": "bytes32"
        }
      ],
      "name": "EFIRFiled",
      "type": "event"
    },
    {
      "anonymous": false,
      "inputs": [
        {
          "indexed": true,
          "internalType": "address",
          "name": "authority",
          "type": "address"
        }
      ],
      "name": "PoliceAuthorityAdded",
      "type": "event"
    },
    {
      "inputs": [
        {
          "internalType": "address",
          "name": "_authority",
          "type": "address"
        }
      ],
      "name": "addPoliceAuthority",
      "outputs": [],
      "stateMutability": "nonpayable",
      "type": "function"
    },
    {
      "inputs": [
        {
          "internalType": "uint256",
          "name": "_sosId",
          "type": "uint256"
        },
        {
          "internalType": "bytes32",
          "name": "_efirHash",
          "type": "bytes32"
        }
      ],
      "name": "fileEFIR",
      "outputs": [],
      "stateMutability": "nonpayable",
      "type": "function"
    },
    {
      "inputs": [
        {
          "internalType": "uint256",
          "name": "",
          "type": "uint256"
        }
      ],
      "name": "firHashes",
      "outputs": [
        {
          "internalType": "bytes32",
          "name": "",
          "type": "bytes32"
        }
      ],
      "stateMutability": "view",
      "type": "function"
    },
    {
      "inputs": [],
      "name": "owner",
      "outputs": [
        {
          "internalType": "address",
          "name": "",
          "type": "address"
        }
      ],
      "stateMutability": "view",
      "type": "function"
    },
    {
      "inputs": [
        {
          "internalType": "address",
          "name": "",
          "type": "address"
        }
      ],
      "name": "policeAuthorities",
      "outputs": [
        {
          "internalType": "bool",
          "name": "",
          "type": "bool"
        }
      ],
      "stateMutability": "view",
      "type": "function"
    }
  ],
  "bytecode": "0x6080604052348015600e575f5ffd5b50335f5f6101000a81548173ffffffffffffffffffffffffffffffffffffffff021916908373ffffffffffffffffffffffffffffffffffffffff16021790555061079f8061005b5f395ff3fe608060405234801561000f575f5ffd5b5060043610610055575f3560e01c8063422b97f9146100595780635e4410ce14610075578063776c8469146100915780638da5cb5b146100c1578063db8ceb09146100df575b5f5ffd5b610073600480360381019061006e919061043e565b61010f565b005b61008f600480360381019061008a91906104d6565b610256565b005b6100ab60048036038101906100a691906104d6565b61037e565b6040516100b8919061051b565b60405180910390f35b6100c961039b565b6040516100d69190610543565b60405180910390f35b6100f960048036038101906100f4919061055c565b6103bf565b6040516101069190610596565b60405180910390f35b60015f3373ffffffffffffffffffffffffffffffffffffffff1673ffffffffffffffffffffffffffffffffffffffff1681526020019081526020015f205f9054906101000a900460ff16610198576040517f08c379a000000000000000000000000000000000000000000000000000000000815260040161018f9061062f565b60405180910390fd5b5f5f1b60025f8481526020019081526020015f2054146101ed576040517f08c379a00000000000000000000000000000000000000000000000000000000081526004016101e4906106bd565b60405180910390fd5b8060025f8481526020019081526020015f20819055503373ffffffffffffffffffffffffffffffffffffffff16827fd497fff80ec684d0ec68c5481511d48741c4e172c32e741334dda0f402ad43cd8360405161024a9190610596565b60405180910390a35050565b5f5f9054906101000a900473ffffffffffffffffffffffffffffffffffffffff1673ffffffffffffffffffffffffffffffffffffffff163373ffffffffffffffffffffffffffffffffffffffff16146102e4576040517f08c379a00000000000000000000000000000000000000000000000000000000081526004016102db9061074b565b60405180910390fd5b6001805f8373ffffffffffffffffffffffffffffffffffffffff1673ffffffffffffffffffffffffffffffffffffffff1681526020019081526020015f205f6101000a81548160ff0219169083151502179055508073ffffffffffffffffffffffffffffffffffffffff167fe56cc50c6b28f208e816e512e6bd021e5554e794c9df937253cfff7a8f1efbe260405160405180910390a250565b6001602052805f5260405f205f915054906101000a900460ff1681565b5f5f9054906101000a900473ffffffffffffffffffffffffffffffffffffffff1681565b6002602052805f5260405f205f915090505481565b5f5ffd5b5f819050919050565b6103ea816103d8565b81146103f4575f5ffd5b50565b5f81359050610405816103e1565b92915050565b5f819050919050565b61041d8161040b565b8114610427575f5ffd5b50565b5f8135905061043881610414565b92915050565b5f5f60408385031215610454576104536103d4565b5b5f610461858286016103f7565b92505060206104728582860161042a565b9150509250929050565b5f73ffffffffffffffffffffffffffffffffffffffff82169050919050565b5f6104a58261047c565b9050919050565b6104b58161049b565b81146104bf575f5ffd5b50565b5f813590506104d0816104ac565b92915050565b5f602082840312156104eb576104ea6103d4565b5b5f6104f8848285016104c2565b91505092915050565b5f8115159050919050565b61051581610501565b82525050565b5f60208201905061052e5f83018461050c565b92915050565b61053d8161049b565b82525050565b5f6020820190506105565f830184610534565b92915050565b5f60208284031215610571576105706103d4565b5b5f61057e848285016103f7565b91505092915050565b6105908161040b565b82525050565b5f6020820190506105a95f830184610587565b92915050565b5f82825260208201905092915050565b7f4f6e6c7920706f6c6963652063616e2063616c6c20746869732066756e6374695f8201527f6f6e000000000000000000000000000000000000000000000000000000000000602082015250565b5f6106196022836105af565b9150610624826105bf565b604082019050919050565b5f6020820190508181035f8301526106468161060d565b9050919050565b7f452d46495220616c72656164792066696c656420666f72207468697320534f535f8201527f2049440000000000000000000000000000000000000000000000000000000000602082015250565b5f6106a76023836105af565b91506106b28261064d565b604082019050919050565b5f6020820190508181035f8301526106d48161069b565b9050919050565b7f4f6e6c79206f776e65722063616e2063616c6c20746869732066756e6374696f5f8201527f6e00000000000000000000000000000000000000000000000000000000000000602082015250565b5f6107356021836105af565b9150610740826106db565b604082019050919050565b5f6020820190508181035f83015261076281610729565b905091905056fea26469706673582212208343372a8109b7463cec322c0fac43f5e676750846a59d89ff06b26d2e39374364736f6c634300081c0033",
  "linkReferences": {},
  "deployedLinkReferences": {},
  "immutableReferences": {},
  "inputSourceName": "project/contracts/EFIR.sol",
  "buildInfoId": "solc-0_8_28-3da1746a77554b5c637832c58d62b47eaefd3716"
}