{
  "_format": "hh3-artifact-1",
  "contractName": "Identity",
  "sourceName": "contracts/Identity.sol",
  "abi": [
    {
      "anonymous": false,
      "inputs": [
        {
          "indexed": true,
          "internalType": "address",
          "name": "user",
          "type": "address"
        },
        {
          "indexed": false,
          "internalType": "bytes32",
          "name": "credentialHash",
          "type": "bytes32"
        }
      ],
      "name": "UserRegistered",
      "type": "event"
    },
    {
      "inputs": [
        {
          "internalType": "address",
          "name": "",
          "type": "address"
        }
      ],
      "name": "credentialHashes",
      "outputs": [
        {
          "internalType": "bytes32",
          "name": "",
          "type": "bytes32"
        }
      ],
      "stateMutability": "view",
      "type": "function"
    },
    {
      "inputs": [
        {
          "internalType": "bytes32",
          "name": "_credentialHash",
          "type": "bytes32"
        }
      ],
      "name": "registerUser",
      "outputs": [],
      "stateMutability": "nonpayable",
      "type": "function"
    }
  ],
  "bytecode": "0x6080604052348015600e575f5ffd5b5061026f8061001c5f395ff3fe608060405234801561000f575f5ffd5b5060043610610034575f3560e01c80632dc0325914610038578063626195ef14610054575b5f5ffd5b610052600480360381019061004d9190610161565b610084565b005b61006e600480360381019061006991906101e6565b610116565b60405161007b9190610220565b60405180910390f35b805f5f3373ffffffffffffffffffffffffffffffffffffffff1673ffffffffffffffffffffffffffffffffffffffff1681526020019081526020015f20819055503373ffffffffffffffffffffffffffffffffffffffff167f4c5d15f5779ae1ecd7d55bd3283d898e29c35743d172bd7b83a16e17bc0afe2a8260405161010b9190610220565b60405180910390a250565b5f602052805f5260405f205f915090505481565b5f5ffd5b5f819050919050565b6101408161012e565b811461014a575f5ffd5b50565b5f8135905061015b81610137565b92915050565b5f602082840312156101765761017561012a565b5b5f6101838482850161014d565b91505092915050565b5f73ffffffffffffffffffffffffffffffffffffffff82169050919050565b5f6101b58261018c565b9050919050565b6101c5816101ab565b81146101cf575f5ffd5b50565b5f813590506101e0816101bc565b92915050565b5f602082840312156101fb576101fa61012a565b5b5f610208848285016101d2565b91505092915050565b61021a8161012e565b82525050565b5f6020820190506102335f830184610211565b9291505056fea2646970667358221220cf4df6d36b9ab036dc0b629f17e822be4ba8e185c7da8b37e17623d8a6bff7b064736f6c634300081c0033",
  "linkReferences": {},
  "deployedLinkReferences": {},
  "immutableReferences": {},
  "inputSourceName": "project/contracts/Identity.sol",
  "buildInfoId": "solc-0_8_28-3da1746a77554b5c637832c58d62b47eaefd3716"
}