{
  "_format": "hh3-artifact-1",
  "contractName": "SosAlert",
  "sourceName": "contracts/SosAlert.sol",
  "abi": [
    {
      "anonymous": false,
      "inputs": [
        {
          "indexed": true,
          "internalType": "uint256",
          "name": "sosId",
          "type": "uint256"
        },
        {
          "indexed": true,
          "internalType": "address",
          "name": "tourist",
          "type": "address"
        },
        {
          "indexed": false,
          "internalType": "bytes32",
          "name": "initialReportHash",
          "type": "bytes32"
        },
        {
          "indexed": false,
          "internalType": "uint256",
          "name": "timestamp",
          "type": "uint256"
        }
      ],
      "name": "SosTriggered",
      "type": "event"
    },
    {
      "inputs": [],
      "name": "sosCounter",
      "outputs": [
        {
          "internalType": "uint256",
          "name": "",
          "type": "uint256"
        }
      ],
      "stateMutability": "view",
      "type": "function"
    },
    {
      "inputs": [
        {
          "internalType": "bytes32",
          "name": "_initialReportHash",
          "type": "bytes32"
        }
      ],
      "name": "triggerSOS",
      "outputs": [],
      "stateMutability": "nonpayable",
      "type": "function"
    }
  ],
  "bytecode": "0x6080604052348015600e575f5ffd5b506102558061001c5f395ff3fe608060405234801561000f575f5ffd5b5060043610610034575f3560e01c80631cb8f9c814610038578063f0f382c214610054575b5f5ffd5b610052600480360381019061004d9190610119565b610072565b005b61005c6100dd565b604051610069919061015c565b60405180910390f35b5f5f815480929190610083906101a2565b91905055503373ffffffffffffffffffffffffffffffffffffffff165f547ff8c1ca28cdf9de254aa7972605755099798c651c9e99258faf025076bddaa09483426040516100d29291906101f8565b60405180910390a350565b5f5481565b5f5ffd5b5f819050919050565b6100f8816100e6565b8114610102575f5ffd5b50565b5f81359050610113816100ef565b92915050565b5f6020828403121561012e5761012d6100e2565b5b5f61013b84828501610105565b91505092915050565b5f819050919050565b61015681610144565b82525050565b5f60208201905061016f5f83018461014d565b92915050565b7f4e487b71000000000000000000000000000000000000000000000000000000005f52601160045260245ffd5b5f6101ac82610144565b91507fffffffffffffffffffffffffffffffffffffffffffffffffffffffffffffffff82036101de576101dd610175565b5b600182019050919050565b6101f2816100e6565b82525050565b5f60408201905061020b5f8301856101e9565b610218602083018461014d565b939250505056fea2646970667358221220c4cd8c352fab067f1834f257675709819bf3bf9f5c988e3899f77b3542c4754964736f6c634300081c0033",
  "linkReferences": {},
  "deployedLinkReferences": {},
  "immutableReferences": {},
  "inputSourceName": "project/contracts/SosAlert.sol",
  "buildInfoId": "solc-0_8_28-3da1746a77554b5c637832c58d62b47eaefd3716"
}